:020000040000FA
:100000006002001045010000490100004B010000A2
:100010004D0100004F0100005101000000000000F0
:10002000000000000000000000000000530100007C
:1000300055010000000000005701000059010000B8
:100040005B0100005B0100005B0100005B01000040
:100050005B0100005B0100005B0100005B01000030
:100060005B0100005B0100005B0100005B01000020
:100070005B0100005B0100005B0100005B01000010
:100080005B0100005B0100005B0100005B01000000
:100090005B0100005B0100005B0100005B010000F0
:1000A0005B0100005B0100005B0100005B010000E0
:1000B0005B0100005B0100005B0100005B010000D0
:1000C0005B01000000F002F800F02EF80AA090E8B2
:1000D000000C82448344AAF10107DA4501D100F003
:1000E00023F8AFF2090EBAE80F0013F0010F18BFA2
:1000F000FB1A43F00103184794010000A40100001B
:100100000023002400250026103A28BF78C1FBD820
:10011000520728BF30C148BF0B6070471FB5AFF30F
:1001200000801FBD10B510BD00F075F81146FFF737
:10013000F5FF00F04DF800F093F8FFF7F3FF00F043
:1001400099F8000008480047FEE7FEE7FEE7FEE7F3
:10015000FEE7FEE7FEE7FEE7FEE7FEE703480449A9
:10016000024A044B70470000C50000006000001008
:1001700060020010600000101448006840F00200A7
:100180001249C439C1F8C40000204FF0402108676B
:100190000E48C438D0F8A80120F00C000B49E43117
:1001A000086046F2A7104FF04021C8607047012157
:1001B0004FF04022516000BF4FF0402189688142DA
:1001C000FAD302214FF0402251607047C4C00F4063
:1001D00010B5FFF7D1FF0D48006840F010000B4943
:1001E000086011E00948806940F010000749886103
:1001F0000A20FFF7DCFF0548C06940F01000034902
:10020000C8610A20FFF7D3FFECE7000000C0092017
:10021000704770477047754600F028F8AE460500F5
:100220006946534620F00700854618B020B5FFF711
:1002300095FFBDE820404FF000064FF000074FF05B
:1002400000084FF0000B21F00701AC46ACE8C009F4
:10025000ACE8C009ACE8C009ACE8C0098D467047FD
:100260000446AFF300802046FFF767FF0048704761
:100270000000001003494FF01800ABBE70470000AB
:100280000900000026000200704700000003000083
:1002900000000010600200000001000000000000EB
:1002A000000000000000000000000000000000004E
:1002B000000000000000000000000000000000003E
:1002C000000000000000000000000000000000002E
:1002D000000000000000000000000000000000001E
:1002E000000000000000000000000000000000000E
:1002F000000000000000000000000000FFFFFFFF02
:0400000500000145B1
:00000001FF
